:020000040800F2
:10000000C046012059020008A16200084F580008AC
:100010009D620008C13200089DAF0008000000008A
:10002000000000000000000000000000A101000826
:10003000533A000800000000F5010008C16C0008F8
:1000400073020008730200087302000873020008BC
:1000500073020008730200087302000873020008AC
:10006000730200087302000873020008730200089C
:10007000730200087302000873020008730200088C
:10008000730200087302000873020008730200087C
:10009000C5320008730200087302000873020008EA
:1000A000730200087302000873020008730200085C
:1000B000730200087302000873020008730200084C
:1000C000730200087302000873020008730200083C
:1000D000730200083D7A0008097B0008B97C00081B
:1000E000730200087302000873020008730200081C
:1000F000730200087302000873020008730200080C
:1001000073020008730200087302000873020008FB
:10011000A9770008597900087302000873020008E3
:1001200073020008730200087302000873020008DB
:1001300073020008730200087302000873020008CB
:100140007302000873020008730200088563000848
:1001500073020008730200087302000873020008AB
:10016000730200087302000873020008730200089B
:10017000730200087302000873020008730200088B
:100180007302000873020008DFF810D000F0A4FB2F
:1001900000480047ADB40008AFF30080C04601201E
:1001A0002A4B19680868B0E8F04F80F30988BFF35C
:1001B0006F8F4FF0000080F311887047000000003F
:1001C00006480068006880F3088862B661B6BFF32D
:1001D0004F8FBFF36F8F00DF00BF00BF08ED00E05F
:1001E000DFF80C00016841F470010160704700BF46
:1001F00088ED00E0EFF30980BFF36F8F134B1A68AF
:100200001EF0100F08BF20ED108A20E9F04F10609B
:1002100008B44FF0500080F31188BFF34F8FBFF345
:100220006F8F0CF04BFC4FF0000080F3118808BC7E
:1002300019680868B0E8F04F1EF0100F08BFB0EC66
:10024000108A80F30988BFF36F8F7047C0000020C9
:10025000EFF30580704700000648804706480047D6
:10026000FEE7FEE7FEE7FEE7FEE7FEE7FEE7FEE766
:10027000FEE7FEE7D16C00088901000840EA0103AF
:100280009B0703D009E008C9121F08C0042AFAD24C
:1002900003E011F8013B00F8013B521EF9D2704710
:1002A000D2B201E000F8012B491EFBD270470022B8
:1002B000F6E710B513460A4604461946FFF7F0FF65
:1002C000204610BD421C10F8011B0029FBD1801AEA
:1002D00070472DE9FE4F804681EA0300C00F0C46AF
:1002E000009021F0004123F00045B8EB0200A94145
:1002F00005D24046214690461C460B46024623F056
:100300000040104347D0270DC7F30A00C3F30A513A
:100310000290401A019040286BDAC3F3130040F4B6
:10032000801B0098924620B10023D2EB030A63EBB6
:100330000B0B01985946C0F14002504600F007FAF5
:1003400006460D4650465946019A00F01FFA10EB3A
:1003500008006141002487EA115284EAE7731A43D6
:1003600040D0009A62B3019A012A4FEA075215DC85
:10037000001B61EB02014FF0004202EA0752CDE997
:100380000042001C41F5801132462B4600F056FA1F
:1003900003B0BDE8F08F40462146F9E7001B61EB52
:1003A0000201001C41F5801300185B412018A2F5E2
:1003B000001747EB030140EAD570B6196D4111E013
:1003C0006D084FEA360645EAC0754FEA0752001B32
:1003D00061EB0201001C41F5801149084FEA300031
:1003E0000019514132462B4603B0BDE8F04F00F0F2
:1003F00016BA0098012240000023D0EB020263EB02
:10040000E073009821464FEAE074B8EB000061EB1E
:100410000401E9E783F000435BE781F0004158E71E
:100420002DE9FE4F81EA030404F0004421F000416D
:1004300000944FF0000B23F0004350EA01045ED01B
:1004400052EA03045BD0C3F30A54C1F30A552C44A7
:10045000A4F2F3340194A0FB0254C1F3130141F45C
:100460008011C3F3130343F4801301FB024400FB28
:10047000034E840A970A44EA815447EA8357A4FB4F
:10048000076802958D0A05FB07854FEA932C04FB4C
:100490000C542705029D4FEA065847EA1637B5EB7C
:1004A00008056EEB070C870E920E47EA811742EAA9
:1004B0008312A7FB0201B6EB0B0164EB00042B0DCA
:1004C00043EA0C335E1844EB1C50DA465146E7FB16
:1004D0000201C5F313044FEA0B3343EA14534FEA06
:1004E0000432019C43EA0603A4F10C040294009C2C
:1004F000CDE900B400F0A2F903B0BDE8F08F002010
:100500000146F9E72DE9F04D81EA030404F0004BC0
:1005100021F0004514464FF0000A23F0004150EA54
:10052000050220D054EA01021DD0C5F30A57024645
:10053000C5F31303C1F31300C1F30A5640F4801549
:1005400043F48013A7EB0608101BD64608F2FD38CB
:1005500073EB050002D308F1010801E092185B413A
:10056000B8F1000F03DA00200146BDE8F08D00204D
:100570004FF48011064684460EE0171B73EB050707
:1005800005D3121B63EB050306434CEA010C490833
:100590004FEA300092185B4150EA0107EDD152EA70
:1005A000030012D082EA040083EA0501084305D063
:1005B000101BAB4106D20122002306E000224FF0BF
:1005C000004302E06FF0010253101AEB06004CEBFF
:1005D000085110EB0A0041EB0B01BDE8F04D00F0B3
:1005E0001EB90EB5C10F80EAE0700844CA070021A9
:1005F00040F233438DE80E000A460B4600F01EF928
:1006000003B000BD0EB540F2334102910021CDE9A7
:1006100000110A460B4600F011F903B000BD70B599
:10062000C1F30A5201F000450024C1F3130140F266
:10063000FF3341F480119A4201DA002070BD40F28C
:1006400033439A42A2F2334203DC524200F08EF866
:1006500000E090402C43F1D0404270BDC1F30A52FB
:1006600010B5C1F3130140F2FF3341F480119A42F7
:1006700001DA002010BD40F233439A42A2F2334225
:1006800003DC524200F072F810BD904010BD00F043
:10069000004230F000400AD0C10D01F56071C0F396
:1006A000160042EA0151C20840071143704700207A
:1006B0000146704701F0004330B421F0004150EA98
:1006C000010206D00A0DA2F56072C1F31301002ADF
:1006D00002DC30BC00207047440F44EAC104C10072
:1006E000E01830BC00EBC25000F062B82DE9F05FBA
:1006F0000546002092469B46884606468146402491
:100700001BE0284641464746224600F02FF8534654
:100710005A46C01A914110D311461846224600F09D
:1007200016F82D1A67EB01084F46224601200021DA
:1007300000F00DF817EB00094E41201EA4F1010452
:10074000DFDC484631462A464346BDE8F09F202A72
:1007500004DB203A00FA02F1002070479140C2F118
:10076000200320FA03F3194390407047202A04DB4A
:10077000203A21FA02F00021704721FA02F3D0401A
:10078000C2F120029140084319467047202A06DB37
:10079000CB17203A41FA02F043EAE07306E041FA4F
:1007A00002F3D040C2F1200291400843194670473D
:1007B0000029A8BF7047401C490008BF20F0010075
:1007C000704710B4B0FA80FC00FA0CF050EA010453
:1007D00004BF10BC704749B1CCF1200421FA04F4E5
:1007E00011FA0CF118BF012121430843A3EB0C01BE
:1007F000CB1D4FEA00614FEA102042BF002010BC21
:10080000704700EBC35010440029A4BF10BC7047D0
:10081000401C490008BF20F0010010BC704710B513
:10082000141E73F1000408DA401C41F10001921813
:100830005B411A4301D120F0010010BD2DE9F04DBC
:1008400092469B4611B1B1FA81F202E0B0FA80F211
:1008500020329046FFF77BFF04460F4640EA0A002D
:1008600041EA0B0153465A46084313D0114653EA56
:10087000010019D0C8F140025046FFF777FF054646
:100880000E46504659464246FFF761FF084305D0E1
:10089000012004E020463946BDE8F08D00200543E4
:1008A00046EAE0762C4337430A986305E40AA0EB56
:1008B00008000022FD0A44EA47540A3002D500200D
:1008C0000146E9E7010510196941DDE9084500190C
:1008D0006941BDE8F04DA2E7064C074D06E0E0682F
:1008E00040F0010394E8070098471034AC42F6D377
:1008F000FFF74EFC5CE500087CE5000870B58C183D
:1009000010F8015B15F0070301D110F8013B2A1123
:1009100006D110F8012B03E010F8016B01F8016B10
:100920005B1EF9D12B0705D40023521E0DD401F80C
:10093000013BFAE710F8013BCB1A921C03E013F8D5
:10094000015B01F8015B521EF9D5A142D8D300200A
:1009500070BD21B1826842F00102826003E08268CA
:1009600022F00102826070470021084A1168084A9B
:100970001140D0E900231A4383681A43C3681A431D
:100980001143044AC2F804137047000004230140D5
:10099000E030FCFF002001400146C86C80B2704787
:1009A0000246002013680B400BB1012000E000203C
:1009B0007047000030B50246002000235068104CFC
:1009C00020400D790C6844EA05242043506090686B
:1009D0000C4C2040D1E903542C438D682C434D79B5
:1009E00044EA450420439060D06A20F470000C7DF6
:1009F000641EE4B2234340EA0350D06230BD0000DD
:100A0000FFFEFFFCFDF7FFC0F0B504460D460020D9
:100A10000021092D11DDE068A5F10A0606EB460765
:100A2000072606FA07F18843A5F10A0606EB4606F3
:100A300003FA06F10843E0600CE0206905EB450786
:100A4000072606FA07F1884305EB450603FA06F187
:100A500008432061072A0FDA606B561E06EB8607F3
:100A60001F2606FA07F18843561E06EB860605FA8E
:100A700006F10843606322E00D2A0FDA206BD61FCF
:100A800006EB86071F2606FA07F18843D61F06EBFA
:100A9000860605FA06F10843206310E0E06AA2F139
:100AA0000D0606EB86071F2606FA07F18843A2F11A
:100AB0000D0606EB860605FA06F10843E062F0BD76
:100AC000816841F080418160704700001CB50121C0
:100AD000102005F05FFC012000908DF8040000203C
:100AE0008DF8060003208DF8050001208DF8070021
:100AF0006946044803F0DEF80121024803F04EF98C
:100B00001CBD00000010024000B58BB00121082080
:100B100005F040FC0121480605F05CFC032009902B
:100B200002208DF8280000208DF82A0003208DF87F
:100B3000290001208DF82B0009A92D4803F0BAF8EF
:100B4000092200212A4803F0FDF809220121284842
:100B500003F0F8F800208DF81A008DF81B008DF8CE
:100B60001C0001208DF81D0000208DF81E008DF85E
:100B70001F008DF816008DF8170003208DF818005F
:100B800001208DF819000620ADF8140005A91948B8
:100B900002F057FC00208DF80E00ADF80400ADF80F
:100BA0000600ADF80800ADF80A008DF80F0001202E
:100BB0008DF810000020ADF80C0001208DF8110018
:100BC00001A802F0B1FB012202210A4802F030FC28
:100BD00014208DF8200001208DF821008DF82200CE
:100BE0008DF8230008A805F05DFB0BB000BD0000E8
:100BF000000C0240006400402DE9F04106460D461D
:100C000017460B48066000200949087248728D7229
:100C1000002405E0395D06480B300155601CC4B264
:100C2000AC42F7D30249034802F00DFDBDE8F08164
:100C30002C0400200064004010B5394802F0AEF9E1
:100C400000286CD036480078312817D13448007914
:100C500040B200EB400040003249C8803048C078C4
:100C600040B2A0EB8000400008812D48407840B29F
:100C70006FF0130110FB01F02A49488128480078E1
:100C8000322817D12648007940B200EB40004000DE
:100C90002449C8802248C07840B2A0EB80004000C0
:100CA00008811F48407840B26FF0130110FB01F03B
:100CB0001C4948811A48007833280ED11848C0785A
:100CC00040B2A0EB800040001649C88014488078EC
:100CD00040B2A0EB00104000488111480078412844
:100CE00012D10F484078104908700D48807848703C
:100CF0000B48C07888700A480079C8700848407965
:100D0000087107488079487105480078422806D163
:100D100003484078552802D101200449087010BDCD
:100D200008020020680100202C0000204D00002057
:100D30003D4890F905003D49097810FB01F000B2EB
:100D40003B49C880384890F904003849097849423D
:100D500010FB01F000B23649088134480078800069
:100D60004042314991F9021010FB01F000B23049C4
:100D700048812D48007800F0200018B101202D494D
:100D8000087012E02B48007878B12B4800780628CC
:100D900005DA29480078401C2749087002E0012044
:100DA000254908700020234908701F48007800F08A
:100DB000400018B101202149087015E01F48007853
:100DC00090B11A480078022805DD18480078401EC6
:100DD0001649087005E002201449087001201849DE
:100DE00008700020154908700F48007800F0800056
:100DF00018B101201349087015E01248007890B12D
:100E00000A480078082805DA08480078401C074995
:100E1000087005E00820054908700120084908709D
:100E20000020084908707047A60000208F000020AD
:100E3000680100208C0000202C0000208D00002084
:100E40004E0000208E00002010B52DED088B394893
:100E500001F048FD002869D03648C089B0F5FA7F16
:100E600064DA34480089B0F5FA7F05DAB7EE080A8B
:100E7000314880ED000A0FE02E480089B0F57A7FF6
:100E800005DAB7EE000A2C4880ED000A04E09FED79
:100E90002B0A294880ED000A26484088A0F5787082
:100EA00000EE100AB8EEC00A2348D0ED000A20EE8A
:100EB000200ABDEEC00A10EE100A00B22049C88018
:100EC0001C480088A0F5787000EE100AB8EEC00A41
:100ED0001948D0ED000AF1EE600A20EE200ABDEEBE
:100EE000C00A10EE100A00B208811249C988A1F5A3
:100EF0007870FFF776FB41EC190B0F480068FFF79D
:100F0000C6FB41EC1B0B9FED0F0B53EC102BFFF7B7
:100F100087FA41EC1A0B53EC192BFFF781FA41ECDD
:100F2000180BFFF77CFB00B205494881BDEC088B2C
:100F300010BD000018020020900000203333333F22
:100F40006801002000000000000014C010B504205B
:100F500005F0A2FE0E4800680E49B0FBF1F00E4904
:100F600008700B4800680B49B0FBF1F44FF47A703D
:100F700044434FF0E020006940F002004FF0E021D0
:100F8000086108464461006940F00100086110BD35
:100F90001800002040420F009400002010B50446C5
:100FA0004FF47A7104FB01F000F002F810BD00006C
:100FB00070B5034600224FF0E02675690D4E367875
:100FC00003FB06F44FF0E026B16910E04FF0E02695
:100FD000B06988420BD0884202D20E1A324402E035
:100FE0002E1A0E4432440146A24200D300E0EDE73F
:100FF00000BF70BD940000201CB50121102005F039
:10100000C9F90420009001208DF8040000208DF81B
:10101000060003208DF8050001208DF807006946C1
:10102000094802F047FE0820009001208DF80600D4
:101030006946054802F03EFE012004490860044963
:10104000C1F88C021CBD0000001002408802424220
:101050000000424270B50446002604F0CDFD211286
:10106000A02202EB4101C8B204F06EFD04F050FE74
:101070002546E11704EB11610912A4EB0121C8B266
:1010800004F062FD04F044FE04F0B6FDA12004F07B
:101090005BFD04F03DFE002004F0FAFC064604F07F
:1010A000EBFD304670BD70B504460E4604F0A4FD5D
:1010B0002112A02202EB4101C8B204F045FD04F068
:1010C00027FE2546E11704EB11610912A4EB01216B
:1010D000C8B204F039FD04F01BFE304604F034FDC4
:1010E00004F016FE04F0C8FD42F21070FFF760FF36
:1010F00070BD4FF08040406A80B2704700B589B043
:101100000121084605F046F90121022005F042F9C7
:101110000121084605F05EF901220F21294802F05D
:1011200011FE01220321284802F00CFE4FF400407A
:10113000079002208DF8200003208DF82100002068
:101140008DF8220001208DF8230007A91D4802F028
:10115000B1FD0820079007A91B4802F0ABFD4FF036
:10116000804005F0A1FE04A806F08AF90020ADF841
:1011700010004FF6FF7005900020ADF81800ADF894
:10118000120004A94FF0804006F038F900231A46F7
:1011900003214FF0804005F04FFF01A805F0A4FFA8
:1011A0000620ADF80C0001A94FF0804005F065FF66
:1011B00000204FF0804148620121880705F059FE68
:1011C00009B000BD00000240000402404FF0804121
:1011D000486270470148006880B2704724040040AC
:1011E00000B589B00121022005F0D4F801210220C8
:1011F00005F0F0F802220421244802F0A3FD0222A7
:101200000521224802F09EFD3020079002208DF833
:10121000200003208DF8210000208DF822000120FD
:101220008DF8230007A9194802F044FD184805F07D
:101230003BFE04A806F024F90020ADF810004FF69C
:10124000FF7005900020ADF81800ADF8120004A959
:101250000F4806F0D3F800231A4603210C4805F086
:10126000EBFE01A805F040FF0620ADF80C0001A937
:10127000074805F002FF00200549243108600121DC
:10128000034805F0F6FD09B000BD0000000402406F
:101290000004004001490860704700002404004039
:1012A0000148006880B27047240C004000B589B046
:1012B0000121084605F06EF80121082005F08AF8A2
:1012C00002220021244802F03DFD02220121224891
:1012D00002F038FD0320079002208DF82000032043
:1012E0008DF8210000208DF8220001208DF82300C8
:1012F00007A9194802F0DEFC184805F0D5FD04A83E
:1013000006F0BEF80020ADF810004FF6FF70059013
:101310000020ADF81800ADF8120004A90F4806F03F
:101320006DF800231A4603210C4805F085FE01A83C
:1013300005F0DAFE0620ADF80C0001A9074805F01B
:101340009CFE00200549243108600121034805F076
:1013500090FD09B000BD000000000240000C0040FC
:101360000149086070470000240C004001480068F3
:1013700080B270472408004000B589B001210820E0
:1013800005F008F80121042005F024F802220C21C0
:10139000244802F0D7FC02220D21224802F0D2FCA0
:1013A0004FF44050079002208DF8200003208DF864
:1013B000210000208DF8220001208DF8230007A9CC
:1013C000184802F077FC184805F06EFD04A806F0F6
:1013D00057F80020ADF810004FF6FF700590002080
:1013E000ADF81800ADF8120004A90F4806F006F891
:1013F00000231A4603210C4805F01EFE01A805F043
:1014000073FE0620ADF80C0001A9074805F035FE73
:1014100000200549243108600121034805F029FD19
:1014200009B000BD000C02400008004001490860FE
:101430007047000024080040F8B506460C461546E3
:1014400046EA040040F0800000909DF80010032060
:1014500004F0C3FC01226946062004F0B3FC9DF8A9
:10146000000000F0F00000909DF80000284300907C
:101470009DF8000040F0010000909DF8001006204B
:1014800004F0ABFCF8BDF8B506460C46154646EA36
:10149000040040F0800000909DF80010042004F04B
:1014A0009CFC01226946062004F08CFC9DF800009B
:1014B00000F00F0000909DF80000284300909DF878
:1014C000000040F0100000909DF80010062004F08D
:1014D00084FCF8BD1CB5044606226946352004F09C
:1014E00071FC9DF800009DF8011040EA012000B257
:1014F00020809DF802009DF8031040EA012000B210
:1015000060809DF804009DF8051040EA012000B2BB
:10151000A0801CBD1CB50446062269463B2004F091
:1015200051FC9DF800009DF8011040EA012000B236
:1015300020809DF802009DF8031040EA012000B2CF
:1015400060809DF804009DF8051040EA012000B27B
:10155000A0801CBD10B504F0C5F9B021602004F0D6
:101560003CFC1848FFF724FD0021082004F035FC5E
:10157000A2210A2004F031FC1348FFF719FD602175
:10158000022004F02AFC0021082004F026FC00219F
:10159000082004F022FC4FF4FA60FFF709FD062250
:1015A00004211020FFF748FF602204215020FFF79C
:1015B0006AFF0321082004F010FC4FF4FA60FFF7E3
:1015C000F7FC10BDF049020080841E001CB501210B
:1015D000102004F0DFFE0221094802F0E1FB0220A6
:1015E000009000208DF8040003208DF805000120F4
:1015F0008DF807006946024802F05CFB1CBD000044
:10160000001002400348006808B90120704700201C
:10161000FCE70000040242421CB50121022004F054
:10162000B9FE012000908DF8040000208DF806001E
:1016300003208DF8050001208DF807006946094850
:1016400002F038FB0121074802F0AAFB02200090BB
:101650006946044802F02EFB0221024802F0A0FB7A
:101660001CBD00000004024010B516480078012897
:1016700002D104F061FC24E012480078022802D173
:1016800004F064FC1DE00F480078032802D104F048
:10169000D3FC16E00B480078042802D104F0D4FCF7
:1016A0000FE008480078052802D104F025FD08E085
:1016B00004480078062802D104F050FD01E004F04F
:1016C0003BFC10BD2C00002000B58BB00121102088
:1016D00004F060FE0121084604F09CFE012209216D
:1016E000354802F02FFB01220B21334802F02AFB80
:1016F00001220D21304802F025FB01220E212E4847
:1017000002F020FB4FF4D440099002208DF828000D
:1017100003208DF8290000208DF82A0001208DF883
:101720002B0009A9244802F0C5FA41F2670007908E
:101730000120ADF818000020ADF81A00ADF8200027
:1017400006A91E4805F05AFE6020ADF804000120ED
:10175000ADF8060000200390ADF8100001A917486D
:1017600005F0CCFC0821154805F006FD01A9134839
:1017700005F00CFD0821114805F05AFD01A90F489C
:1017800005F064FD08210D4805F0B0FD01A90B48E6
:1017900005F0B6FD0821094805F0EEFD01210748D6
:1017A00005F05BFB0121054805F063FB01210348BF
:1017B00005F06BFB0BB000BD0010024000000140C3
:1017C00070B505462C4641F26800844200DD0446AF
:1017D0000E48844200DA0446002C0BDD41F2680119
:1017E0000B4805F0D6FD41F26800011B084805F0E2
:1017F000D2FD0AE041F26801054805F0CCFD41F256
:1018000068002118024805F0C4FD70BD98EFFFFF85
:101810000000014070B505462C4641F26800844244
:1018200000DD04460E48844200DA0446002C0BDD3D
:1018300041F268010B4805F0B0FD41F26800011B60
:10184000084805F0ACFD0AE041F26801054805F0E2
:10185000A6FD41F268002118024805F09EFD70BD0A
:1018600098EFFFFF0000014000B58BB00121102070
:1018700004F090FD0121080404F0CCFD03220521B1
:10188000504802F05FFA032206214E4802F05AFA4D
:101890006020099002208DF8280003208DF829008F
:1018A00000208DF82A0001208DF82B0009A9454859
:1018B00002F000FA41F2670007900120ADF818002D
:1018C0000020ADF81A00ADF8200006A93E4805F04A
:1018D00095FD6020ADF804000120ADF80600002061
:1018E0000390ADF8100001A9374805F007FC082166
:1018F000354805F041FC01A9334805F047FC0821B3
:10190000314805F095FC01212F4805F0A6FA012188
:101910002D4805F0AEFA0121022004F03BFD012123
:10192000402004F057FD09220E21284802F00AFA4F
:1019300009220F21254802F005FA4FF44040099092
:1019400002208DF8280003208DF8290000208DF852
:101950002A0001208DF82B0009A91C4802F0AAF9E1
:1019600041F2670007900020ADF81800ADF81A00AA
:10197000ADF8200006A9164805F040FD6020ADF83E
:1019800004000120ADF8060000200390ADF810001F
:1019900001A90F4805F0B2FB08210D4805F0ECFB4A
:1019A00001A90B4805F0F2FB0821094805F040FCAD
:1019B0000121074805F051FA0121054805F059FABF
:1019C0000BB000BD00100240004001400004024086
:1019D0000018004070B505462C4641F2680084426C
:1019E00000DD04460E48844200DA0446002C0BDD7C
:1019F00041F268010B4805F0CCFC41F26800011B84
:101A0000084805F0C8FC0AE041F26801054805F005
:101A1000C2FC41F268002118024805F0BAFC70BD12
:101A200098EFFFFF0040014070B505462C4641F29B
:101A30006800844200DD04460E48844200DA044611
:101A4000002C0BDD41F268010B4805F0A2FC41F2CD
:101A50006800011B084805F09EFC0AE041F268019D
:101A6000054805F098FC41F268002118024805F08D
:101A700090FC70BD98EFFFFF0018004070B5002487
:101A800015E004F1B001C8B204F066FC002004F0D7
:101A900063FC102004F060FC002504E0002004F04A
:101AA0006BFC681CC5B2802DF8DB601CC4B2082C2E
:101AB000E7DB70BD2DE9F04705460E461746984610
:101AC0004FF000090024A7F1200000F0FF097B2D52
:101AD0002BDA082E29DAB8F1000F14D03146284647
:101AE00004F026FC00BF0BE009EB490104EB4101C7
:101AF0000F4A515CC943C8B204F03EFC601CC4B23A
:101B0000062CF1DB11E03146284604F011FC0024DC
:101B100009E009EB490104EB4101054A505C04F07E
:101B20002BFC601CC4B2062CF3DBBDE8F087000080
:101B300030E300082DE9F04105460E4614461F46E5
:101B40000A2C07DA04F13000C2B23B46314628467F
:101B5000FFF7B0FFBDE8F0812DE9F05F05460E46C6
:101B600017469846DDE90A9B7F2D01DC072E01DD33
:101B7000BDE8F09FE819802803DC06EB0800082880
:101B800000DDF5E7BBF1000F18D0344613E0214625
:101B9000284604F0CDFBAA4609E019F8012BD143F1
:101BA000C8B204F0E9FB0AF1010000F0FF0ABA45EF
:101BB000F3DB601CC4B24445E9DB15E0344611E0B8
:101BC0002146284604F0B4FBAA4607E019F8010BA9
:101BD00004F0D2FB0AF1010000F0FF0ABA45F5DB80
:101BE000601CC4B24445EBDB00BFC1E72DE9F04106
:101BF00004460D461646984600277B2C14DA082D1D
:101C000012DA0EE0F25D434629462046FFF752FF06
:101C1000A01DC4B27A2C02DD0024681CC5B2781C59
:101C2000C7B2F05D0028EDD1BDE8F0812DE9FE4F8F
:101C300080468A4691461D46DDE90C7B002D76DD07
:101C4000E8190A2873DAB9F1000F02DAC9F10006BF
:101C500000E04E460A20B6FBF0F100FB11608DF863
:101C600001006420B6FBF0F100FB11600A21B0FB1B
:101C7000F1F08DF802004FF47A70B6FBF0F100FB42
:101C800011606421B0FBF1F0C0B28DF8030042F2A4
:101C90001070B6FBF0F100FB11604FF47A71B0FBED
:101CA000F1F0C0B28DF804005948B6FBF0F100FB2A
:101CB000116042F21071B0FBF1F0C0B28DF8050076
:101CC0005448B6FBF0F100FB11605149B0FBF1F054
:101CD000C0B28DF806005048B6FBF0F100FB116071
:101CE0004C49B0FBF1F0C0B28DF807004B48B6FB91
:101CF000F0F100FB11604849B0FBF1F0C0B28DF883
:101D000008004748B6FBF0F100FB11604349B0FB07
:101D1000F1F0C0B28DF80900B9F1000F41DA0023EB
:101D20002D2251464046FFF7C5FE002412E037E061
:101D3000E919091B491E1DF8012004EB440308F1B1
:101D4000060101EB4301C8B25B465146FFF7F2FEC4
:101D5000601CC4B2681EA042EADC002F56D005EB1E
:101D6000450108EB4101C8B25B462E225146FFF700
:101D7000A1FE002412E005EB450108EB4101891D9D
:101D800004EB440301EB4301C8B2391B1DF80120E9
:101D90005B465146FFF7CEFE601CC4B2BC42EADB94
:101DA00034E000240EE0E919091B1DF8012004EBC2
:101DB000440108EB4101C8B25B465146FFF7BAFE49
:101DC000601CC4B2AC42EEDB07B305EB450108EB87
:101DD0004101C8B25B462E225146FFF76BFE00243C
:101DE00012E005EB450108EB4101891D04EB4403BA
:101DF00001EB4301C8B2391B1DF801205B46514677
:101E0000FFF798FE601CC4B2BC42EADBBDE8FE8F5F
:101E1000A086010040420F008096980000E1F50581
:101E200000CA9A3B00B587B00121084604F0B2FA17
:101E30000121080304F0EEFAA020009002208DF8A2
:101E4000040000208DF8060003208DF80500012015
:101E50008DF807006946574801F02CFF052211460E
:101E6000544801F06FFF05220721524801F06AFF34
:101E70005020009001208DF8040000208DF806000D
:101E800003208DF8050001208DF8070069464948B8
:101E900001F010FF0020ADF808004FF48270ADF89B
:101EA0000A000020ADF80C000220ADF80E00012061
:101EB000ADF810004002ADF812000020ADF814009B
:101EC000ADF816000720ADF8180002A93A4804F052
:101ED00082FC0121384804F05BFCFF2004F030FC58
:101EE0004021344801F05CFF6420FFF757F840219F
:101EF000304801F053FFC820FFF750F840212D482B
:101F000001F04EFFAE2004F027FA002004F024FA7E
:101F1000102004F021FA402004F01EFA812004F081
:101F20001BFAEF2004F018FAA12004F015FAC820DB
:101F300004F012FAA62004F00FFAA82004F00CFA1C
:101F40003F2004F009FAD32004F006FA002004F040
:101F500003FAD52004F000FA802004F0FDF9D9201E
:101F600004F0FAF9F12004F0F7F9DA2004F0F4F9BA
:101F7000122004F0F1F9DB2004F0EEF9402004F027
:101F8000EBF9202004F0E8F9022004F0E5F98D20B7
:101F900004F0E2F9142004F0DFF9A42004F0DCF9E5
:101FA000A62004F0D9F9AF2004F0D6F9FFF766FDBA
:101FB00007B000BD000002400030014000B597B0FE
:101FC0000121042004F0E6F90121C80304F002FA1B
:101FD00006220C21344801F0B5FE4FF480501590D4
:101FE00002208DF858008DF8590000208DF85A0015
:101FF00001208DF85B0015A92B4801F05BFE4FF422
:102000004040ADF840004FF48270ADF8420000202F
:10201000ADF84400ADF846000120ADF8480040029C
:10202000ADF84A001020ADF84C000020ADF84E008D
:102030000720ADF8500010A91C4804F0CCFB01218A
:102040001A4804F0A5FB0021184804F095FB012272
:102050000221164804F0A8FB0121480504F09AF972
:10206000134801F0A9FB00BF114801F051FC002802
:10207000FAD101900D480C3002900E480390402098
:1020800004900020059006904FF480600790002097
:10209000089009900A904FF400300B9001A9044871
:1020A00001F062FC17B000BD00080240003C004097
:1020B00088600240680300202DE9F04106460F4683
:1020C000904600202149087081F8C100002424E0D6
:1020D00007FA04F000F0800008B1F82100E0C02108
:1020E0001A4A601C115406FA04F000F0800008B18E
:1020F000F82100E0C021154A04F10900115408FA42
:1021000004F000F0800008B1F82100E0C0210F4A7F
:1021100004F111001154601C84B2082CD8DB012595
:102120000EE0012408E00948005D182101FB05418B
:10213000064A5054601C84B2192CF4DB681C85B22A
:10214000082DEEDB04F0FAF9BDE8F0816803002009
:1021500070B5064600202449087081F8C1000024AB
:102160003CE0002536E004EB440030444078A840D1
:1021700000F0800008B1F82100E0C02104EB440029
:1021800005EBC000401C184A115404EB4400305CBD
:10219000A84000F0800008B1F82100E0C02104EB65
:1021A000440005EBC00009300F4A115404EB440011
:1021B00030448078A84000F0800008B1F82100E0A9
:1021C000C02104EB440005EBC0001130064A115455
:1021D000681CC5B2082DC6DB601CC4B2082CC0DB6D
:1021E00004F0ACF970BD00006803002070B506462D
:1021F00000202449087081F8C10000243CE000253B
:1022000036E004EB440030444078A84000F0800001
:1022100008B1F82100E0C02104EB440005EBC00048
:10222000401C184A115404EB4400305CA84000F0F4
:10223000800008B1F82100E0C02104EB440005EB68
:10224000C00009300F4A115404EB44003044807838
:10225000A84000F0800008B1F82100E0C02104EBA4
:10226000440005EBC0001130064A1154681CC5B289
:10227000082DC6DB601CC4B2082CC0DB04F05EF97C
:1022800070BD00006803002070B52DED0E8BFEF7C9
:1022900030FF05B22846FEF7A4F941EC190B9FED7B
:1022A000FE0B53EC102BFEF7BBF841EC180BFEF7BE
:1022B00001FA0446FEF7EBF9F94A03C20020FEF7E3
:1022C00085FFFEF787FF05B22846FEF78AF941EC45
:1022D0001A0B9FEDF10B53EC102BFEF7A1F841EC1C
:1022E000190B81F0004141EC180BFEF7E3F90446AD
:1022F000FEF7CDF9EB4A03C20020FEF7CBFFFEF755
:10230000CFFF05B22846FEF76CF941EC190B9FEDA3
:10231000E20B53EC102BFEF783F841EC180BFEF7A1
:10232000C9F90446FEF7B3F9DF4A03C20020FFF7FC
:1023300017F8FFF71BF804B22046FEF752F941ECFC
:102340001A0B9FEDD50B53EC102BFEF769F841ECFF
:10235000190B81F0004141EC180BFEF7ABF9054673
:10236000FEF795F9D14A03C20020FFF75FF8CD4888
:1023700090ED002BB0EE420AF0EE620AC84890EDF4
:10238000002BB0EE421AF0EE621A53EC102B51EC17
:10239000110BFDF79EFF41EC1C0BC34890ED001B99
:1023A000B0EE410AF0EE610A53EC102B51EC1C0B1D
:1023B000FDF78FFF41EC1B0BBC4890ED001BB0EE0E
:1023C000410AF0EE610A53EC102B51EC1B0BFDF7A8
:1023D00080FF41EC1A0B9FEDB60B53EC102BFEF770
:1023E00091F841EC190B9FEDB40B53EC102BFEF759
:1023F00017F841EC180BFEF712F900B2B04908804B
:10240000A74890ED001BB0EE410AF0EE610A51ECD6
:10241000100B81F0004141EC1D0BA24890ED001B18
:10242000B0EE410AF0EE610A53EC102B51EC1D0B9B
:10243000FDF74FFF41EC1C0B9B4890ED001BB0EEED
:10244000410AF0EE610A53EC102B51EC1C0BFDF726
:1024500040FF41EC1B0B954890ED001BB0EE410A8C
:10246000F0EE610A53EC102B51EC1B0BFDF7D2FF81
:1024700041EC1A0B9FED8E0B53EC102BFEF742F83C
:1024800041EC190B9FED8C0B53EC102BFDF7C8FFA3
:1024900041EC180BFEF7C3F800B289494880804828
:1024A00090ED001BB0EE410AF0EE610A51EC100B0A
:1024B00081F0004141EC1E0B7A4890ED001BB0EE1C
:1024C000410AF0EE610A53EC102B51EC1E0BFDF7A4
:1024D00000FF41EC1D0B744890ED001BB0EE410A6B
:1024E000F0EE610A53EC102B51EC1D0BFDF792FF3F
:1024F00041EC1C0B6D4890ED001BB0EE410AF0EE74
:10250000610A53EC102B51EC1C0BFDF7E2FE41EC81
:102510001B0B9FED670B53EC102BFDF7F3FF41EC0A
:102520001A0B9FED680B53EC102BFDF7EBFF41EC02
:10253000190B9FED610B53EC102BFDF771FF41EC74
:10254000180BFEF76CF800B25D4988800846B0F9B8
:10255000060040F2DC51884202DD08465849C88036
:102560005748B0F906005949884203DA4FF624204B
:102570005349C8805248B0F90800B0F5966F03DDA2
:102580004FF496604E4908814D48B0F9080010F5A7
:10259000966F03DA4FF65030494908814848B0F940
:1025A0000A0041F68801884202DD08464449488114
:1025B0004348B0F90A004649884203DA4EF278707F
:1025C0003F4948813E49B1F90600FEF70AF841EC5F
:1025D000190B9FED390B53EC102BFDF793FF41ECDA
:1025E000180BFEF767F836498861B1F90800FDF766
:1025F000F8FF41EC190B9FED300B53EC102BFDF75E
:1026000081FF41EC180BFEF755F82D49C861B1F96F
:102610000A00FDF7E6FF41EC190B9FED270B53EC89
:10262000102BFDF76FFF41EC180BFEF743F8244920
:102630000862084690ED080A10EE101A0846FEF7E8
:1026400026F841EC1B0B9FED1F0B53EC102BFDF7F5
:10265000E7FE41EC190B1A4890ED060AD0ED070A87
:1026600030EE600A10EE101A0846FEF710F841EC42
:102670001A0B53EC192BFDF7CDFE41EC180BFEF7AE
:1026800019F8074988600E4890ED080A10EE101AF4
:102690000846FDF7FCFF1DE062FCC032CD00843F20
:1026A00090010020A0010020B0010020C001002006
:1026B00000000000000010400000000000408F40BB
:1026C0006801002062105839B4C8C63F24FAFFFFE1
:1026D00078E7FFFF41EC1B0B1FED060B53EC102BB3
:1026E000FDF79EFE41EC190B724890ED060AD0ED05
:1026F000070A30EE200A10EE101A0846FDF7C7FF51
:1027000041EC1A0B53EC192BFDF7E3FD41EC180BD0
:10271000FDF7D0FF68498860664890ED080A10EE22
:10272000101A0846FDF7B3FF41EC1B0B1FED1B0B06
:1027300053EC102BFDF774FE41EC190B5D4890ED46
:10274000060AD0ED070A30EE200A10EE101A0846ED
:10275000FDF79DFF41EC1A0B53EC192BFDF75AFEC8
:1027600041EC180BFDF7A6FF54498860514890EDE5
:10277000080A10EE101A0846FDF789FF41EC1B0B02
:102780001FED300B53EC102BFDF74AFE41EC190BFB
:10279000484890ED060AD0ED070A30EE600A10EEC8
:1027A000101A0846FDF773FF41EC1A0B53EC192B76
:1027B000FDF78FFD41EC180BFDF77CFF4049886069
:1027C000404890ED001BB0EE410AF0EE610A51EC7A
:1027D000100BFDF76FFF08EE100A3A48D0ED020A21
:1027E000B0EE600AF0EE480A00F0CAF93549888177
:1027F000314890ED001BB0EE410AF0EE610A51EC59
:10280000100BFDF757FF08EE100A2B48D0ED020A17
:10281000B0EE600AF0EE480A00F0F8F92649888127
:10282000264890ED001BB0EE410AF0EE610A51EC33
:10283000100BFDF73FFF08EE100A2048D0ED020A0A
:10284000B0EE600AF0EE480A00F026FA1B498881D3
:102850001B4890ED001BB0EE410AF0EE610A51EC0E
:10286000100BFDF727FF08EE100A1548D0ED020AFD
:10287000B0EE600AF0EE480A00F054FA1049888180
:1028800010498989494208B2FEF79AFF0A498989A5
:10289000494208B2FEF7BEFF0849B1F90C00FFF744
:1028A00099F80749B1F90C00FFF7BEF8BDEC0E8BA3
:1028B00070BD000068010020A0010020B0010020D0
:1028C000C00100209001002010B50020FEF778FF25
:1028D0000020FEF79FFF0020FFF77CF80020FFF7A5
:1028E000A3F810BD01463948007800286CD038485C
:1028F0004078374A927840EA0220C0F30A00088004
:1029000033488078C010324AD27840EA4210C0F38F
:102910000A0048802E48C07880112D4A127940EA7A
:1029200082002B4A527940EA8220C0F30A00888054
:10293000274840794010264A927940EAC210C0F3F5
:102940000A00C880224880790011214AD27940EAE1
:102950000210C0F30A0008811D48C079C0111C4A4A
:10296000127A40EA42001A4A527A40EA4220C0F300
:102970000A0048811648407A8010154A927A40EA47
:102980008210C0F30A0088811148807A4011104AF1
:10299000D27A40EAC200C8810D48007B0C4A527BC3
:1029A00040EA0220C0F30A0008820948407BC010B8
:1029B000074A927B40EA4210C0F30A004882002096
:1029C000024A1070012070470020FCE7A0000020A0
:1029D0005404002000B587B001210C2003F0DAFC7C
:1029E0000121080503F0F6FC08220221244801F029
:1029F000A9F90420059002208DF818008DF819001F
:102A000000208DF81A0001208DF81B0005A91C4834
:102A100001F050F91B4801904FF48050ADF80800C8
:102A20004000ADF80A00C010ADF80C000020ADF871
:102A300010000420ADF80E0001A9134805F026FA95
:102A400035208DF8000001208DF801008DF802007E
:102A50008DF80300684603F025FC012240F2255161
:102A6000094805F0EDF9012240F22441064805F03D
:102A7000E7F90121044805F0A0F907B000BD000006
:102A8000000C0240A08601000050004000B58BB051
:102A90000121022003F07EFC0121880403F0BAFC2E
:102AA00003220921214801F04DF902208DF8280068
:102AB00000208DF82A004FF40070099001208DF855
:102AC0002B0003208DF8290009A9184801F0F2F81D
:102AD000A720ADF818000020ADF81A008DF82200EC
:102AE00044F61F6007900020ADF8200006A91048AA
:102AF00004F084FC6020ADF804000120ADF806006D
:102B000000200390ADF8100001A9094804F0F6FA7E
:102B10000821074804F030FB0121054804F09DF925
:102B20000121034804F0A5F90BB000BD00040240E8
:102B30000048014010B50446B4F5617F01DD4FF453
:102B4000617414F5617F00DA094C00EE104AF8EE6A
:102B5000C00A9FED080A9FED081A01EE200ABCEE9C
:102B6000C00A10EE101A054804F013FC10BD000056
:102B70007CFCFFFF0080BB443F358E3F0048014096
:102B800030EE601A1C4880ED001A1C48B0F90000B5
:102B900001EE100AB8EEC11A1748D0ED001A21EE66
:102BA000211AD0ED001A164890ED002A31EEC22A03
:102BB0001448B0F9000001EE900AF8EEE11A01EEB7
:102BC000821A1148B0F9000001EE900AF8EEE11AFD
:102BD00031EE211ABDEEC11A11EE100A00B20A49F7
:102BE0000880054890ED001A054880ED001A084657
:102BF000B0F9000070470000680000204600002087
:102C00006C000020480000206000002030EE601AB8
:102C10001C4880ED001A1C48B0F9000001EE100AB3
:102C2000B8EEC11A1748D0ED001A21EE211AD0EDE6
:102C3000001A164890ED002A31EEC22A1448B0F965
:102C4000000001EE900AF8EEE11A01EE821A114836
:102C5000B0F9020001EE900AF8EEE11A31EE211A05
:102C6000BDEEC11A11EE100A00B20A4948800548AB
:102C700090ED001A054880ED001A0846B0F90200F0
:102C80007047000070000020460000207400002003
:102C9000480000206000002030EE601A1C4880EDE3
:102CA000001A1C48B0F9000001EE100AB8EEC11A73
:102CB0001748D0ED001A21EE211AD0ED001A16485F
:102CC00090ED002A31EEC22A1448B0F9000001EE5E
:102CD000900AF8EEE11A01EE821A1148B0F90400E8
:102CE00001EE900AF8EEE11A31EE211ABDEEC11A9A
:102CF00011EE100A00B20A498880054890ED001ACA
:102D0000054880ED001A0846B0F90400704700003D
:102D100078000020460000207C00002048000020B1
:102D20006000002030EE601A1C4880ED001A1C483C
:102D3000B0F9000001EE100AB8EEC11A1748D0ED44
:102D4000001A21EE211AD0ED001A164890ED002A43
:102D500031EEC22A1448B0F9000001EE900AF8EEF4
:102D6000E11A01EE821A1148B0F9060001EE900A4C
:102D7000F8EEE11A31EE211ABDEEC11A11EE100A79
:102D800000B20A49C880054890ED001A054880ED58
:102D9000001A0846B0F906007047000080000020C5
:102DA0004600002084000020480000206000002031
:102DB00010B588B004460121084603F0EBFA012162
:102DC000102003F027FB07220921244800F0BAFF56
:102DD00007220A21214800F0B5FF4FF4C060069099
:102DE00002208DF81C008DF81D0000208DF81E00BB
:102DF00001208DF81F0006A9184800F05BFF02941F
:102E00000020ADF80C00ADF80E00ADF81000ADF8E4
:102E100014000C20ADF8120002A9114805F036F894
:102E200001210F4804F0C9FF40210D4804F0BCFF08
:102E3000012240F225510A4805F002F825208DF8BC
:102E4000040001208DF805008DF806008DF80700BC
:102E500001A803F027FA08B010BD000000000240EE
:102E60000010014010B588B004460121082003F08D
:102E700091FA0121480403F0ADFA07220521214807
:102E800000F060FF072206211E4800F05BFF602073
:102E9000069002208DF81C008DF81D0000208DF892
:102EA0001E0001208DF81F0006A9164800F002FF41
:102EB00002940020ADF80C00ADF80E00ADF8100043
:102EC000ADF814000C20ADF8120002A90E4804F071
:102ED000DDFF01210C4804F070FF012240F2255172
:102EE000094804F0ADFF26208DF8040001208DF87C
:102EF00005008DF806008DF8070001A803F0D2F94F
:102F000008B010BD000C0240004400402DE9F0471D
:102F100007460D4690464FF00009202D37DCAA20C9
:102F20001C49087055204870681D8870084680F854
:102F30000380002405E0395D201D164A1154601CF1
:102F4000C4B2AC42F7DB281DC6B2002406E011482B
:102F5000005D484400F0FF09601CC4B2B442F6DBD7
:102F60000C4800F80490681DC6B200240DE0094822
:102F7000015D094804F0F9FF00BF4021064804F054
:102F800028FF0128F9D1601CC4B2B442EFDBBDE8D0
:102F9000F0870000A00200200044004010B5034666
:102FA0000B48007890B10B488078001FC2B2002116
:102FB00005E0C81C074C205C5854481CC1B2914223
:102FC000F7DB0020024C2070104610BD0020FCE70B
:102FD0009A000020C802002010B588B004460121E4
:102FE000022003F0D7F90121880403F0F3F9072246
:102FF0000A21224800F0A6FE07220B211F4800F0FC
:10300000A1FE4FF44060069002208DF81C008DF860
:103010001D0000208DF81E0001208DF81F0006A95C
:10302000164800F047FE02940020ADF80C00ADF801
:103030000E00ADF81000ADF814000C20ADF8120031
:1030400002A90F4804F022FF01210D4804F0B5FE4B
:10305000012240F225510A4804F0F2FE27208DF8A3
:10306000040001208DF805008DF806008DF807009A
:1030700001A803F017F908B010BD000000040240D9
:103080000048004010B588B004460121042003F038
:1030900081F90121C80403F09DF908220A21224880
:1030A00000F050FE08220B211F4800F04BFE4FF4A9
:1030B0004060069002208DF81C008DF81D00002055
:1030C0008DF81E0001208DF81F0006A9164800F09B
:1030D000F1FD02940020ADF80C00ADF80E00ADF843
:1030E0001000ADF814000C20ADF8120002A90F4832
:1030F00004F0CCFE01210D4804F05FFE012240F2F5
:1031000025510A4804F09CFE34208DF8040001206B
:103110008DF805008DF806008DF8070001A803F072
:10312000C1F808B010BD000000080240004C00408B
:103130002DE9F04707460D4690464FF00009202D37
:1031400037DCAA201C49087055204870681D88701B
:10315000084680F80380002405E0395D201D164AEA
:103160001154601CC4B2AC42F7DB281DC6B2002467
:1031700006E01148005D484400F0FF09601CC4B23D
:10318000B442F6DB0C4800F80490681DC6B2002477
:103190000DE00948015D094804F0E7FE00BF402149
:1031A000064804F016FE0128F9D1601CC4B2B442EE
:1031B000EFDBBDE8F087000040030020004C00403A
:1031C00070B52DED068B1548FDF77AFC00BF022186
:1031D0001248FDF7E5FB0028F9D01048FDF7DCFBAD
:1031E00005462846FDF70EFA41EC1A0B9FED0C0B35
:1031F00053EC102BFDF714F941EC190B9FED0A0B62
:1032000053EC102BFDF77EF941EC180BFDF726FA75
:1032100084B22046BDEC068B70BD00000021014049
:10322000285C8FC2F53EAC400000000000FEAF40BD
:1032300000B58DB00121042003F0ACF80121480253
:1032400003F0E8F801200B9003208DF830000020F7
:103250008DF833000BA9184800F02CFD012148021D
:1032600003F0E8F800214FF4007003F0E3F80020C9
:1032700007900A9009904FF48030089007A8FDF756
:1032800073FB002001908DF808008DF80900039071
:10329000059001208DF8180001A90848FDF78AFB68
:1032A00001210648FDF755FB072301220A210348A7
:1032B000FDF7AAFB0DB000BD00080240002101404F
:1032C00000BFFEE710B5144A0021144800F043F98E
:1032D0000020134908701048006840F281118842AC
:1032E00018D10D48007B0C49C97A40EA012000B290
:1032F0000C49C8800848817B407B41EA002000B22D
:10330000084908810448017CC07B41EA002000B2E2
:103310000449488110BD00004004002000640040C2
:103320004F0000206801002010B50021837A01229F
:1033300002FA03F13D4A126842F001023B4B1A6067
:103340003A4A1C3212688A43384B1C331A60027B9B
:10335000CAB9364A0C3212688A43344B0C331A60AD
:103360004288C38842EA0343304A4032847A42F8B2
:1033700034300288838842EA03432C4A4032847AFC
:1033800002EBC4025360027B012A19D1274A0C3296
:1033900012680A43254B0C331A604288038842EABC
:1033A0000343224A4032847A42F83430C288838808
:1033B00042EA03431D4A4032847A02EBC40253605E
:1033C000C27A3AB9194A121D12688A43174B1B1D5B
:1033D0001A6006E0154A121D12680A43134B1B1DA2
:1033E0001A60028932B9114A143212688A430F4BAB
:1033F00014331A600289012A06D10C4A1432126869
:103400000A430A4B14331A60427B012A06D1074A49
:103410001C3212680A43054B1C331A60034A1268B7
:1034200022F00102014B1A6010BD0000006600404E
:103430001AB143690B43436102E043698B43436123
:10344000704730B5024600200023146824F00204BF
:103450001460146844F00104146000E05B1C5468BC
:1034600004F001041CB94FF6FF74A342F6D154686E
:1034700004F001040CB900206CE08C79012C04D11B
:10348000146844F08004146003E0146824F080049D
:103490001460CC79012C04D1146844F04004146009
:1034A00003E0146824F0400414600C7A012C04D169
:1034B000146844F02004146003E0146824F020042D
:1034C00014604C7A012C04D1146844F01004146088
:1034D00003E0146824F0100414608C7A012C04D1E9
:1034E000146844F00804146003E0146824F008042D
:1034F0001460CC7A012C04D1146844F004041460E4
:1035000003E0146824F0040414608C78A407CD78D8
:1035100044EA05640D7944EA05444D7944EA0554CA
:103520000D886D1E2C43D461146824F001041460CE
:10353000002300E05B1C546804F001041CB14FF64A
:10354000FF74A342F6D1546804F001040CB10020CA
:1035500000E0012030BD10B500F5D87303EB011376
:103560001B6803F004031372137A53B900F5D87380
:1035700003EB01131B6840F2FF7404EA535313601A
:1035800009E000F5D87303EB01131B686FF060448A
:1035900004EAD303536000F5D87303EB01131B68EF
:1035A00003F00203537200F5D87303EB01135B6859
:1035B00003F00F03937200F5D87303EB01135B68FC
:1035C0001B0AD37400F5D87303EB01139B68D37205
:1035D00000F5D87303EB01139B681C0A147300F504
:1035E000D87303EB01139B681C0C547300F5D8735C
:1035F00003EB01139B681B0E937300F5D87303EB69
:103600000113DB68D37300F5D87303EB0113DB6898
:103610001C0A147400F5D87303EB0113DB681C0C4F
:10362000547400F5D87303EB0113DB681B0E93741D
:1036300021B9C36843F02003C36003E0036943F08A
:103640002003036110BD10B502460020936803F00B
:103650008063B3F1806F00D110E0936803F00063E2
:10366000B3F1006F01D1012008E0936803F08053AB
:10367000B3F1805F01D1022000E00420042874D05F
:1036800002F5C07303EB00131B6803F0010402F59D
:10369000C07303EB00131C600B7A7BB94B7A0C8868
:1036A00043EA445302F5C07404EB00142468234336
:1036B00002F5C07404EB0014236010E00B7A4C6830
:1036C00043EAC4034C7A234302F5C07404EB0014AC
:1036D0002468234302F5C07404EB001423608B7A42
:1036E00003F00F038B7202F5C07303EB00135B68EA
:1036F00023F00F0402F5C07303EB00135C6002F5C6
:10370000C07303EB00135B688C7A234302F5C0742B
:1037100004EB001463608B7B1C064B7B44EA034480
:103720000B7B44EA0323CC7A234302F5C07404EBF9
:103730000014A3608B7C1C064B7C44EA03440B7C86
:1037400044EA0323CC7B234302F5C07404EB00144A
:10375000E36002F5C07303EB00131B6843F0010440
:1037600002F5C07303EB00131C6010BD0246094B49
:103770009A4201D2084801E00648103801F000538F
:103780001BB1064B0B40C36002E0044B0B4083604F
:103790007047000010640240006002407D0F7D0F02
:1037A00021B1026842F00102026003E0026822F0E7
:1037B0000102026070470000016821F00101016010
:1037C0000021016041608160C1600161212141618E
:1037D0004A49884204D13D21484A103A91608CE020
:1037E00046491831884205D14FF47461434A103A72
:1037F000916082E041493031884205D14FF4741123
:103800003E4A103A916078E03C494831884205D1FF
:103810004FF07461394A103A91606EE03749603177
:10382000884204D13649354A103AD16065E03349BF
:103830007831884204D13349304A103AD1605CE093
:103840002E499031884204D12F492C4A103AD16038
:1038500053E02A49A831884205D14FF03D51274A0B
:10386000103AD16049E02949884204D13D21274AD4
:10387000083A116041E025491831884205D14FF4DA
:103880007461224A083A116037E020493031884299
:1038900005D14FF474111D4A083A11602DE01B49FF
:1038A0004831884205D14FF07461184A083A1160D6
:1038B00023E016496031884204D11149134A121F8E
:1038C00011601AE011497831884204D10D490F4A3C
:1038D000121F116011E00D499031884204D10A494C
:1038E0000A4A121F116008E00849A831884204D131
:1038F0004FF03D51054A121F1160704710600240A1
:103900003D000020400F002000003D2010640240D8
:10391000014600200A6802F001020AB1012000E01D
:103920000020704730B503460A46002000240B4DA6
:10393000AB4201D20A4901E00849103902F00055B2
:103940000DB14C6800E00C68064D2C4004EA0205FD
:103950000DB1012000E0002030BD000010640240E5
:10396000006002407D0F7D0F10B500220268134BEE
:103970001A40CC680B6823434C6923438C6923436A
:10398000CC6923430C6A23434C6A23438C6A234348
:103990004C6B23438C6B23431A430260426922F031
:1039A0000702D1E90B3423431A4342610B69436098
:1039B0004B6883608B68C36010BD00003F801CF0C3
:1039C0004160704770B50446002500BF05E0002146
:1039D00004F6881040F825106D1C102DF7D3002533
:1039E00004E0002104F58E7041556D1CB5F5006FA3
:1039F000F7D30020207060700120A0700020C4F870
:103A0000C809012121764021A1710021617684F845
:103A10001C19012184F81D19002184F81F1984F84C
:103A20001E194FF4807104F11C00FCF740FC4FF4A8
:103A3000006104F58E70FCF73AFC122104F62610A2
:103A4000FCF735FC3E2104F63810FCF730FC002072
:103A500070BD70472DED048B82B0CDE0642008F07E
:103A60005DFD6648007800B364480078012806D1FF
:103A7000002363A202215A20FEF7B8F81BE05F483A
:103A80000078022806D100235EA202215A20FEF708
:103A9000ADF810E05948007803280CD100235AA251
:103AA00002215A20FEF7A2F805E0002357A20221C6
:103AB0005A20FEF79BF856480088FCF7A3FD41EC1E
:103AC000190B9FED540B53EC102BFCF7A9FC41ECA8
:103AD000180BFCF7A4FD0446002001210223224616
:103AE000CDE9001003211E20FEF7A0F80020009071
:103AF00001904A48B0F90A20062303215A20FEF714
:103B000095F8642008F00AFD454890ED001BB0EEE2
:103B1000410AF0EE610A9FED431B53EC112B51EC6F
:103B2000100BFCF77DFC41EC180BFCF778FD04460C
:103B3000002002210B462246CDE9001006211E205E
:103B4000FEF774F8394890ED001BB0EE410AF0EE34
:103B5000610A9FED341B53EC112B51EC100BFCF759
:103B60005FFC41EC180BFCF75AFD044600200221D3
:103B70000B462246CDE9001006215A20FEF756F8E2
:103B80002B4890ED001BB0EE410AF0EE610A9FED6C
:103B9000251B53EC112B51EC100BFCF741FC41ECB5
:103BA000180BFCF73CFD0446002002210B46224680
:103BB000CDE9001007211E20FEF738F81D4890EDD2
:103BC000001BB0EE410AF0EE610A9FED161B53ECAC
:103BD000112B51EC100BFCF723FC41EC180BFCF7FC
:103BE0001EFD0446002002210B462246CDE90010AE
:103BF00007215A20FEF71AF830E700004F00002096
:103C00004750440041505000524D5300524F530012
:103C1000320000209A9999999999B93FD0010020D2
:103C2000900100200000000000005940A001002089
:103C3000B0010020C001002072B600BFFEE7000006
:103C400010B58B78124C2370CB7863700B79A3710D
:103C50004B79E371CB795BB2A3704B7A5BB2E370C3
:103C6000CB7A5BB223714B7B5BB26371094B1B78E0
:103C7000012B0CD023461B78102B08D12346DB7870
:103C80007F2B04D10123034C2370034C237010BD00
:103C9000A60000204F0000204E0000200120014916
:103CA000087070474E0000200220014908707047DC
:103CB0004E000020F0B50A4600210023002400BF7A
:103CC0003DE0012505FA01F3156805EA03049C426D
:103CD00034D105684F000326BE40B5430560157911
:103CE0004E00B5400668354305601579012D02D0B8
:103CF0001579022D16D185684F000326BE40B543C5
:103D0000856055794E00B5408668354385604568C5
:103D100001268E40B5434560456896798E40B6B21F
:103D200035434560C5684F000326BE40B543C560B6
:103D3000D5794E00B540C6683543C560491C102989
:103D4000BFD3F0BDF0B5002300244D07ED0E02FAFD
:103D500005F3CE1000F1200555F826504E07F70E5A
:103D60000F26BE40B543CF1000F1200646F827507D
:103D7000CE1000F1200555F8265045EA0304CE1078
:103D800000F1200545F82640F0BD024600201369E9
:103D90000B400BB1012000E00020704741837047C9
:103DA000018370470AB1018300E04183704710B579
:103DB0000446D4F8DC0305F009FB10BD10B5044639
:103DC000D4F8DC0305F019FB10BD10B504462068DB
:103DD00006F05CFB10BD10B50446206806F05DFBE4
:103DE00010BD10B502460023C1EB011402F114000E
:103DF00000EB84008371C1EB011402F1140000EBAD
:103E00008400C371C1EB011402F1140000EB8400C3
:103E10004374C1EB011402F1140000EB840003743D
:103E2000002010BD0246C1EB011302F1140000EBAB
:103E3000830090F8380070470246C1EB011302F18D
:103E4000140000EB8300406A704770B504460D46CD
:103E5000002600BF94F8D403012801D1022070BDD0
:103E6000012084F8D40300BF2946206806F026FB11
:103E700000BF002084F8D40300BF3046EFE72DE9EF
:103E8000FF5F04460D4616469B46DDE90E78DDF8D9
:103E900040A000BF94F8D403012803D1022004B04D
:103EA000BDE8F09F012084F8D40300BF0021C5EBDA
:103EB000051204F1140000EB82004171C5EB0511FD
:103EC00004F1140000F821B0C5EB051100EB8100EE
:103ED0004570C5EB051104F1140000EB810080F87A
:103EE000128006F07F01C5EB051204F1140000EB0F
:103EF0008200817029462046FFF773FF06F080009C
:103F0000802808D10121C5EB051204F1140000EB53
:103F10008200C17007E00021C5EB051204F1140016
:103F200000EB8200C170206806F0B7FA8146B8F154
:103F3000010F09D1012F07D1B9F1000F04D1BAF156
:103F4000BC0F01D94FF0BC0AC5EB051104F11400F8
:103F500000EB81000771C5EB051204F1140000EBC2
:103F60008200A0F814A01FFA8AF0CDE90078029030
:103F70005B4632462946206806F07CFB039000BF72
:103F8000002084F8D40300BF039888E770B5044686
:103F90000D461646D4F8DC0305F0C0FA70BD2DE9D5
:103FA000F05F04460D4616461F46DDE90C9BDDE931
:103FB0000A8AC5EB051104F1140000EB8100C670FC
:103FC000C5EB051104F1140000EB81008774B8F112
:103FD000000F10D10321C5EB051204F1140000EB12
:103FE00082008175C5EB051104F1140000EB81001E
:103FF00080F805B007E00221C5EB051204F11400BA
:1040000000EB8200817537B1012F6FD0022F51D0A4
:10401000032F6CD187E0B8F1010F4AD136BBB9F15B
:10402000000F08D10121C5EB051204F1140000EBCB
:10403000820080F82910C5EB051104F1140000EB93
:10404000810090F8290040B90021C5EB051204F168
:10405000140000EB820081752BE00221C5EB0512F4
:1040600004F1140000EB8200817522E0C5EB05111C
:1040700004F1140000EB81008079012819D1C5EB0F
:10408000051104F1140000EB810090F8280040B9FC
:104090000021C5EB051204F1140000EB82008175CC
:1040A00007E00221C5EB051204F1140000EB8200C9
:1040B000817579E0E6B9C5EB051104F1140000EB58
:1040C000810090F8290040B90021C5EB051204F1E8
:1040D000140000EB8200817524E00221C5EB05127B
:1040E00004F1140000EB820081751BE052E05AE0FD
:1040F000C5EB051104F1140000EB810090F82800D5
:1041000040B90021C5EB051204F1140000EB820058
:10411000817507E00221C5EB051204F1140000EBE4
:104120008200817540E0D6B9C5EB051104F1140099
:1041300000EB810090F8290040B90021C5EB051281
:1041400004F1140000EB8200817522E00221C5EB2E
:10415000051204F1140000EB8200817519E0C5EB33
:10416000051104F1140000EB810090F8280040B91B
:104170000021C5EB051204F1140000EB82008175EB
:1041800007E00221C5EB051204F1140000EB8200E8
:10419000817509E00021C5EB051204F1140000EB64
:1041A0008200817500E000BF00BFC5EB051104F17E
:1041B000140000EB8100C0F818A0C5EB051104F154
:1041C000140000EB8100C0F820900021C5EB05121F
:1041D00004F1140000EB820080F83810C5EB0512E2
:1041E00004F1140000EB82004162C5EB051104F1FB
:1041F000140000EB810045700021C5EB051204F1AD
:10420000140000EB820080F83910A279C5EB051C80
:1042100004F1140303EB8C01206806F01DFBBDE8DC
:10422000F09F2DE9F04104462768B846206806F063
:1042300040F901287AD1206806F0A4FD08B9BDE84C
:10424000F081206806F09EFD00F40010B0F5001F1C
:1042500003D14FF4001021684861206806F092FDF8
:1042600000F48010B0F5801F03D14FF48010216856
:104270004861206806F086FD00F08060B0F1806F34
:1042800003D14FF0806021684861206806F07AFD14
:1042900000F00200022801D121684861206806F080
:1042A00071FD00F00050B0F1005F19D14FF00050E7
:1042B00021684861D8F8400400F0010080B910215D
:1042C000384606F0B9F8384606F08EF8607A0228CB
:1042D00003D10121206806F021FD2046FFF76EFD85
:1042E000206806F04FFD00F08070B0F1807F02D1B1
:1042F000204601F0A6F9206806F044FD00F0080011
:10430000082805D1204600F0D7F808202168486128
:10431000206806F037FD00F00070B0F1007F27D173
:10432000206806F091FA064600251AE035E005F00F
:104330000F0101208840304090B108F5A06000EBEB
:104340004510006800F40040B0F5004F04D1E9B218
:10435000204600F0EAF803E0E9B2204600F0D5FD7F
:104360006D1C6079A842E2D84FF000702168486166
:10437000206806F007FDC0F3001070B12068806966
:1043800020F0100021688861204601F0B5F920680E
:10439000806940F010002168886100BF4FE738B5A0
:1043A00004460CB9012038BD256894F8D50328B916
:1043B000002084F8D403204600F034F8032084F869
:1043C000D503B5F1A04F01D10021A171206805F0FE
:1043D000B5FF207C8DF8000094E80F0005F03EFF4B
:1043E00020B1022084F8D5030120DCE701212068F8
:1043F00006F01BFD20B1022084F8D5030120D2E78E
:10440000207C8DF8000094E80F0006F007FC20B136
:10441000022084F8D5030120C5E7012084F8D503E4
:104420000020C0E73EB504460121084601F0B2FF76
:104430000121802001F0BEFF4FF4C0500190022006
:104440008DF8080003208DF8090000208DF80B007E
:1044500001A90E48FFF72EFC0A220B210B48FFF79B
:1044600071FC0A220C210948FFF76CFC43208DF8EF
:10447000000005208DF8010000208DF802000120C9
:104480008DF80300684601F00DFF3EBD00000240BC
:1044900010B50446D4F8DC0305F06FF810BD10B574
:1044A0000446D4F8DC0305F06CF810BD10B50446E2
:1044B000206806F09CFC10BD10B50446D4F8DC035F
:1044C00004F0F4FF10BD10B5044600BF94F8D40307
:1044D000012801D1022010BD012084F8D40300BFBF
:1044E0000121206805F054FF206805F076FF00BF29
:1044F000002084F8D40300BF00BFECE710B50446E9
:1045000000BF94F8D403012801D1022010BD01207E
:1045100084F8D40300BF206806F0BBFC00BF002075
:1045200084F8D40300BF00BFF0E72DE9F041054651
:104530000C46D5F8008046462146286806F013FC54
:1045400000F00400042813D1042106F5A06000EB5C
:10455000441081600721C4EB041205F1140000EB44
:10456000820080F839102146286805F0A7FF72E024
:104570002146286806F0F7FB00F48070B0F5807FD4
:1045800014D14FF4807106F5A06000EB44108160F7
:104590000821C4EB041205F1140000EB820080F83E
:1045A00039102146286805F089FF54E02146286823
:1045B00006F0D9FB00F00800082813D1082106F501
:1045C000A06000EB441081600621C4EB041205F1E9
:1045D000140000EB820080F839102146286805F0AD
:1045E0006DFF38E02146286806F0BDFB00F48060CE
:1045F000B0F5806F14D14FF4806106F5A06000EB38
:10460000441081600921C4EB041205F1140000EB91
:10461000820080F839102146286805F04FFF1AE023
:104620002146286806F09FFB00F08000802812D108
:10463000802106F5A06000EB441081600721C4EBE7
:10464000041205F1140000EB820080F839102146B5
:10465000286805F033FF2146286806F084FB00F443
:104660000070B0F5007F0BD12146286805F026FFC9
:104670004FF4007106F5A06000EB44108160DCE0AF
:104680002146286806F06FFB00F0010000287ED06C
:10469000202106F5A06000EB44108160C4EB0411FA
:1046A00005F1140000EB8100C079012813D100212D
:1046B000C4EB041205F1140000EB8200C17106F591
:1046C000A06000EB4410406820F4803106F5A06043
:1046D00000EB44104160A879A8B1C4EB041105F1C6
:1046E000140000EB8100C16906F5A06000EB4410E6
:1046F0000069C0F31200091AC4EB041205F114009A
:1047000000EB820041620121C4EB041205F11400A8
:1047100000EB820080F839100021C4EB041205F18F
:10472000140000EB82000163012106F5A06000EB9C
:1047300044108160C4EB041105F1140000EB81000A
:10474000807C40B1C4EB041105F1140000EB810042
:10475000807C02280AD12146286805F0AFFE10218E
:1047600006F5A06000EB4410816034E0C4EB041156
:1047700005F1140000EB8100807C03280AD0C4EB13
:10478000041105F1140000EB8100807C00E068E07A
:10479000012820D106F5A06000EB4410006840F02D
:1047A000005106F5A06000EB441001600121C4EB4C
:1047B000041205F1140000EB820080F83810C4EBFD
:1047C000041105F1140000EB810090F83820214617
:1047D0002846FFF7DBFBA87901282FD1C4EB041191
:1047E00005F1140000EB8100C4EB0412416A05F1ED
:1047F000140000EB8200808A0844401EC4EB0412BF
:1048000005F1140101EB8201898AB0FBF1F000F09F
:104810000100002811D0C4EB041105F1140000EBD5
:10482000810090F8280080F00101C4EB041205F12A
:10483000140000EB820080F8281064E3C4EB04113C
:1048400005F1140000EB810090F8280080F00101D0
:10485000C4EB041205F1140000EB820080F828106C
:1048600051E32146286806F07EFA00F02000202857
:1048700024D1202106F5A06000EB44108160C4EB38
:10488000041105F1140000EB810080790128D4D1D6
:104890000121C4EB041205F1140000EB8200C17188
:1048A0000321C4EB041205F1140000EB820080F830
:1048B00039102146286805F001FE24E321462868C6
:1048C00006F051FA00F0020002287DD1022106F51F
:1048D000A06000EB44108160C4EB041105F11400EA
:1048E00000EB810090F83900012812D10221C4EBBD
:1048F000041205F1140000EB820080F83910012148
:10490000C4EB041205F1140000EB820080F83810AB
:1049100037E2C4EB041105F1140000EB810090F8BC
:104920003900062812D10221C4EB041205F114004B
:1049300000EB820080F839100521C4EB041205F168
:10494000140000EB820080F838101AE2C4EB041166
:1049500005F1140000EB810090F83900072809D018
:10496000C4EB041105F1140000EB810090F839004C
:1049700009287ED10221C4EB041205F1140000EBDA
:10498000820080F83910C4EB041105F1140000EB2B
:104990008100006B401CC4EB041205F1140101EB13
:1049A00082010863C4EB041105F1140000EB8100DF
:1049B000006B022837D90021C4EB041205F1140062
:1049C00000EB8200016300E0E8E1C4EB041105F1B3
:1049D000140000EB8100807901281AD10021C4EB7A
:1049E000041205F1140000EB8200C171C4EB041243
:1049F00005F1140000EB8200017206F5A06000EBE7
:104A00004410406820F4803106F5A06000EB4410AB
:104A100041600421C4EB041205F1140000EB820094
:104A200080F83810ADE10221C4EB041205F1140046
:104A300000EB820080F83810C4EB041105F114007B
:104A400000EB8100807C40B1C4EB041105F114003F
:104A500000EB8100807C0228E4D106F5A06000EB29
:104A60004410076827F0804747F0004706F5A0602C
:104A700000E003E000EB4410076082E1C4EB0411A6
:104A800005F1140000EB810090F83900052872D17F
:104A90000221C4EB041205F1140000EB820080F83F
:104AA0003910C4EB041105F1140000EB8100C0794A
:104AB0000128B7D1C4EB041105F1140000EB81000B
:104AC000807C032858D1C4EB041105F1140000EBDD
:104AD0008100406B401CC4EB041205F1140101EB92
:104AE00082014863C4EB041105F1140000EB81005E
:104AF000406B022835D90021C4EB041205F11400E3
:104B000000EB82004163C4EB041205F1140000EBDA
:104B10008200C171C4EB041105F1140000EB8100A7
:104B2000006B032807D20121C4EB041205F1140025
:104B300000EB8200017206F5A06000EB44104068B3
:104B400020F4803106F5A06000EB441041600421A0
:104B5000C4EB041205F1140000EB820080F8381059
:104B600013E00221C4EB041205F1140000EB8200F3
:104B700080F8381009E028E00221C4EB041205F1A6
:104B8000140000EB820080F83810C4EB041105F12A
:104B9000140000EB8100807C40B1C4EB041105F1EE
:104BA000140000EB8100807C02280DD106F5A06086
:104BB00000EB4410076827F0804747F0004706F5F0
:104BC000A06000EB44100760DBE0C4EB041105F1CA
:104BD000140000EB810090F8390003285ED1022117
:104BE000C4EB041205F1140000EB820080F83910C8
:104BF000C4EB041105F1140000EB8100C079012819
:104C00004BD10221C4EB041205F1140000EB820029
:104C100080F8381006F5A06000EB4410406840F4BE
:104C2000803106F5A06000EB4410416006F5A060FD
:104C300000EB4410C06840F0400106F5A06000EBB6
:104C40004410C16006F5A06000EB4410C06820F07D
:104C5000200106F5A06000EB4410C160C4EB041114
:104C600005F1140000EB8100807C40B1C4EB04111D
:104C700005F1140000EB8100807C02280DD106F5BF
:104C8000A06000EB4410076827F0804747F000471A
:104C900006F5A06000EB4410076072E0C4EB04115D
:104CA00005F1140000EB810090F83900042830D1A0
:104CB0000221C4EB041205F1140000EB820080F81D
:104CC0003910C4EB041205F1140000EB820080F8E7
:104CD0003810C4EB041105F1140000EB8100807C56
:104CE00040B1C4EB041105F1140000EB8100807C9D
:104CF000022846D106F5A06000EB4410076827F0B3
:104D0000804747F0004706F5A06000EB44100760BD
:104D100037E0C4EB041105F1140000EB810090F8BA
:104D20003900082821D10221C4EB041205F1140036
:104D300000EB820080F83910C4EB041105F1140077
:104D400000EB8100006B401CC4EB041205F1140160
:104D500001EB820108630421C4EB041205F1140085
:104D600000EB820080F838100BE0C4EB041105F171
:104D7000140000EB810090F83900022801D1BDE851
:104D8000F081C4EB041105F1140000EB810090F8F0
:104D9000382021462846FFF7F9F8B4E02146286874
:104DA00005F0E1FF00F04000402823D1402106F546
:104DB000A06000EB441081600521C4EB041205F1F2
:104DC000140000EB820080F83910C4EB041105F1E7
:104DD000140000EB8100807938B90021C4EB041283
:104DE00005F1140000EB820001632146286805F0FC
:104DF00065FB88E02146286805F0B5FF00F010004B
:104E000010287ED1C4EB041105F1140000EB8100E1
:104E1000807C032815D10021C4EB041205F1140095
:104E200000EB820001630421C4EB041205F11400BD
:104E300000EB820080F839102146286805F03EFB1F
:104E400030E0C4EB041105F1140000EB8100807C1C
:104E500040B1C4EB041105F1140000EB8100807C2B
:104E600002281FD10021C4EB041205F1140000EB4D
:104E700082000163A87940B1C4EB041105F114006C
:104E800000EB8100C07901280CD10421C4EB04128D
:104E900005F1140000EB820080F8391021462868E3
:104EA00005F00CFBC4EB041105F1140000EB8100CC
:104EB000C07901281FD10021C4EB041205F11400B0
:104EC00000EB8200C17106F5A06000EB4410406861
:104ED00020F4803106F5A06000EB4410416006F537
:104EE000A06000EB4410C06840F0200106F5A0600F
:104EF00000EB4410C160102106F5A06000EB4410E7
:104F000000E000E0816000BF39E72DE9F047054689
:104F10000C46D5F800904E462146286805F023FF40
:104F200000F00400042813D1042106F5A06000EB72
:104F3000441081600721C4EB041205F1140000EB5A
:104F4000820080F839102146286805F0B7FA76E328
:104F50002146286805F007FF00F02000202865D1D1
:104F6000202106F5A06000EB44108160C4EB041121
:104F700005F1140000EB8100407901281DD10021CA
:104F8000C4EB041205F1140000EB82004171022110
:104F9000C4EB041205F1140000EB820080F8381015
:104FA0000321C4EB041205F1140000EB820080F829
:104FB00039102146286805F081FAC4EB041105F187
:104FC000140000EB810080790128C0D1C4EB0411EA
:104FD00005F1140000EB8100C0790028B7D1C4EBC3
:104FE000041105F1140000EB8100807C012807D03A
:104FF0000121C4EB041205F1140000EB8200C17121
:105000000321C4EB041205F1140000EB820080F8C8
:1050100039102146286805F051FA0021C4EB04122A
:1050200005F1140000EB8200016308E321462868C3
:1050300005F099FE00F40070B0F5007F0BD14FF43D
:10504000007106F5A06000EB4410816021462868DD
:1050500005F034FAF3E22146286805F084FE00F0FA
:105060000100E8B30021C4EB041205F1140000EBC9
:10507000820001632146286805F075FE00F04000BB
:1050800040280DD10121C4EB041205F1140000EBFE
:1050900082004171402106F5A06000EB4410816060
:1050A000C4EB041105F1140000EB8100C07998B144
:1050B0000021C4EB041205F1140000EB8200C17161
:1050C00006F5A06000EB4410406820F4803106F53E
:1050D000A06000EB44104160012106F5A06000E0F3
:1050E0000FE000EB44108160C4EB041205F11400E2
:1050F00000EB820080F839102146286805F0DEF9BF
:105100009DE22146286805F02EFE00F04000402870
:105110002BD10521C4EB041205F1140000EB820031
:1051200080F83910C4EB041105F1140000EB810084
:10513000807938B90121C4EB041205F1140000EBA9
:10514000820041710021C4EB041205F1140000EB50
:10515000820001632146286805F0B0F9402106F578
:10516000A06000EB4410816069E22146286805F0E8
:10517000FAFD00F00800082813D1082106F5A06008
:1051800000EB441081600621C4EB041205F1140009
:1051900000EB820080F839102146286805F08EF96E
:1051A0004DE22146286805F0DEFD00F010001028D1
:1051B00033D10021C4EB041205F1140000EB82008E
:1051C00001630421C4EB041205F1140000EB82001A
:1051D00080F83910C4EB041105F1140000EB8100D4
:1051E000407978B9C4EB041105F1140000EB81009B
:1051F000007938B90121C4EB041205F1140000EB69
:10520000820041712146286805F058F9102106F501
:10521000A06000EB4410816011E22146286805F08F
:10522000A2FD00F08000802855D1A87968B9072137
:10523000C4EB041205F1140000EB820080F8391071
:105240002146286805F03AF93EE0C4EB041105F167
:10525000140000EB8100006B401CC4EB041205F14C
:10526000140101EB82010863C4EB041105F1140081
:1052700000EB8100006B02281DD90021C4EB041251
:1052800005F1140000EB820001630421C4EB041259
:1052900005F1140000EB820080F83810C4EB041113
:1052A00005F1140000EB810090F8382021462846D3
:1052B000FEF76CFE08E00221C4EB041205F11400B5
:1052C00000EB820080F83810802106F5A06000EB2A
:1052D00044108160B3E12146286805F044FD00F4E4
:1052E0008060B0F5806F14D10921C4EB041205F180
:1052F000140000EB820080F839102146286805F080
:10530000DDF84FF4806106F5A06000EB4410816089
:1053100095E12146286805F026FD00F002000228EC
:105320007DD1022106F5A06000EB44108160C4EB42
:10533000041105F1140000EB810090F839000128F8
:1053400076D10221C4EB041205F1140000EB8200B7
:1053500080F839100121C4EB041205F1140000EBB0
:10536000820080F83810C4EB041105F1140000EB42
:105370008100807C022808D0C4EB041105F11400E0
:1053800000EB8100807C032851D1A87988B9C4EB57
:10539000041105F1140000EB810090F8290080F061
:1053A0000101C4EB041205F1140000EB820080F847
:1053B0002910A8790128E7D1C4EB041105F11400E4
:1053C00000EB8100006A002831D0C4EB041105F124
:1053D000140000EB8100C4EB0412016A05F1140013
:1053E00000EB8200808A0844401EC4EB041205F1E1
:1053F000140101EB8201898AB0FBF1F808F0010089
:105400000028E1D0C4EB041105F1140000EB810089
:1054100090F8290080F00101C4EB041201E00DE1D5
:1054200006E005F1140000EB820080F82910F8E096
:10543000C4EB041105F1140000EB810090F8390071
:1054400003281BD10221C4EB041205F1140000EB68
:10545000820080F83910C4EB041105F1140000EB50
:105460008100C079012808D10221C4EB041205F1A2
:10547000140000EB820080F83810D2E0C4EB041175
:1054800005F1140000EB810090F8390004282ED1BA
:105490000221C4EB041205F1140000EB820080F835
:1054A0003910C4EB041205F1140000EB820080F8FF
:1054B0003810C4EB041105F1140000EB8100C07931
:1054C000012813D10021C4EB041205F1140000EBF4
:1054D0008200C17106F5A06000EB4410406820F422
:1054E000803106F5A06000EB4410416099E0C4EB08
:1054F000041105F1140000EB810090F83900052833
:1055000011D10221C4EB041205F1140000EB82005A
:1055100080F83910C4EB041205F1140000EB82008E
:1055200080F838107DE0C4EB041105F1140000EBA5
:10553000810090F83900062812D10221C4EB041230
:1055400005F1140000EB820080F839100521C4EB4E
:10555000041205F1140000EB820080F8381060E0BE
:10556000C4EB041105F1140000EB810090F8390040
:10557000072809D0C4EB041105F1140000EB8100E9
:1055800090F8390009284AD10221C4EB041205F130
:10559000140000EB820080F83910C4EB041105F10F
:1055A000140000EB8100006B401CC4EB041205F1F9
:1055B000140101EB82010863C4EB041105F114002E
:1055C00000EB8100006B022811D90021C4EB04120A
:1055D00005F1140000EB820001630421C4EB041206
:1055E00005F1140000EB820080F8381019E0022168
:1055F000C4EB041205F1140000EB820080F83810AF
:1056000006F5A06000EB4410076827F0804747F0DC
:10561000004706F5A06000EB4410076001E0BDE81C
:10562000F087C4EB041105F1140000EB810090F841
:10563000382021462846FEF7A9FC00E0EFE700BF2E
:10564000EDE77CB5044626683546D5F84004019060
:10565000D5F840040090009820F02E0000900198AA
:1056600000F0020002280AD1019800F0010010B1F8
:105670002046FEF79CFB009840F002000090019845
:1056800000F0080008282AD1009840F00800009097
:10569000019800F0040004281ED1607A02280FD17E
:1056A000019800F4C020B0F5802F04D102212068B9
:1056B00005F034FB0CE00121206805F02FFB07E02A
:1056C000E079012804D14EF6602140F204404151B6
:1056D0002046FEF7E4FE02E02046FEF7D9FE0198E0
:1056E00000F02000202803D1009840F02000009016
:1056F0000098C5F840047CBD2DE9F84F0546D5F863
:1057000000B05F462868D0F8208008F00F04C8F386
:1057100043400090C8F30A160098022806D00328D8
:105720007DD005287CD007287BD18CE0002E79D055
:10573000C4EB041105F1140000EB8100806900281E
:105740007DD0C4EB041105F1140000EB8100406A28
:105750008119C4EB041205F1140000EB8200006A09
:10576000814263D8B2B2C4EB041C05F1140303EB0D
:105770008C039969286805F00AFBC4EB041105F154
:10578000140000EB810080698119C4EB041205F15B
:10579000140000EB82008161C4EB041105F11400D8
:1057A00000EB8100406A8119C4EB041205F114007A
:1057B00000EB8200416207F5A06000EB4410006935
:1057C000C0F3C94AC4EB041105F1140000EB8100D9
:1057D000808AB04233D1BAF1000F30D007F5A06013
:1057E00000EB4410D0F8009029F0804949F00049BE
:1057F00007F5A06000EB4410C0F80090C4EB041162
:1058000005F1140000EB810090F8280080F0010100
:10581000C4EB041205F1140000EB820003E011E078
:105820000EE00EE00BE080F8281008E00421C4EB45
:10583000041205F1140000EB820080F8381003E038
:1058400002E000BF00BF00BF00BFBDE8F88F00BF8F
:10585000FEE7000010B500200E4908600E48006801
:1058600020F440400C4908600846006840F480403D
:10587000086000200949C1F89C020120FBF798FB51
:10588000012004490860FBF793FB00200349C1F89D
:10589000980210BD988240420004024000804042BD
:1058A00010B500200D4908600220FBF781FB0120A4
:1058B0000B49C1F888020220FBF77AFB0020074958
:1058C000091F08600220FBF773FB01200449C1F89F
:1058D0008C020220FBF76CFB10BD00008C024242E0
:1058E000000042421CB50121022000F053FDC020FF
:1058F000009001208DF8040000208DF806000320A0
:105900008DF8050001208DF8070069460448FEF770
:10591000D1F90120034908600349C1F89C021CBD6C
:1059200000040240988240420080404210B50020AE
:105930000E4908600E48006820F440400C49086099
:105940000846006840F48040086001200949C1F819
:105950009C02FBF72DFB012004490860FBF728FBA4
:1059600000200449C1F8980210BD0000988240420E
:10597000000402400080404210B50120094908603F
:105980000220FBF715FB01200749C1F8880202201D
:10599000FBF70EFB00200349091F08600220FBF7FC
:1059A00007FB10BD8C024242000042422DE9F0414B
:1059B00006460F4614461D4600F0EAF810B90120CD
:1059C000BDE8F0817106080E00F08CF800F06EF969
:1059D00018B900F02DF90120F2E7384600F082F8FE
:1059E00000F064F900F0D4F8012101EB4601C8B2DF
:1059F00000F078F800F05AF90DE0012C04D10020F5
:105A000000F010F8287003E0012000F00BF8287077
:105A10006D1C601EC4B2002CEFD100F009F900200B
:105A2000CEE7000070B5054600241648006820F453
:105A3000404014490860084600680860002616E0E7
:105A40000020114908600220FBF7B2FA01200F493B
:105A5000C1F898026006040E0B487C38006808B153
:105A6000601CC4B20220FBF7A3FA701CC6B2082E59
:105A7000E6DB15B1FFF7EEFE01E0FFF757FF20462A
:105A800070BD000000040240988240420080404205
:105A900070B505460024002615E06006040E0120BE
:105AA0000E4908600220FBF783FA0D48D0F80C027B
:105AB00008B1601CC4B20020084908600220FBF74E
:105AC00077FA701CC6B2082EE7DB15B9FFF754FF52
:105AD00001E0FFF7E5FE204670BD0000880242426B
